:100000000C945D000C9485000C9485000C94850084
:100010000C9485000C9485000C9485000C9485004C
:100020000C9485000C9485000C9485000C9485003C
:100030000C9485000C9485000C9485000C9485002C
:100040000C940F030C9485000C9485000C9485008F
:100050000C9485000C9485000C9485000C9485000C
:100060000C9485000C94850000000008000201003B
:100070000003040700000000000000000000000072
:10008000250028002B0000000000240027002A0083
:10009000040404040404040402020202020203032E
:1000A0000303030301020408102040800102040836
:1000B0001020010204081020AA0411241FBECFEF53
:1000C000D8E0DEBFCDBF22E0A2E6B2E001C01D92C3
:1000D000A738B207E1F712E0A0E0B1E0E2EFFDE0FF
:1000E00002C005900D92A236B107D9F710E0CDE518
:1000F000D0E004C02197FE010E94FF04CC35D10757
:10010000C9F70E9459030C94F7060C94000090E084
:10011000FC01EC55FF4F249180579F4FFC018491C7
:10012000882399F090E0880F991FFC01EA57FF4F50
:10013000A591B491FC01E458FF4F859194918FB73C
:10014000F894EC91E22BEC938FBF0895AF92BF929D
:10015000CF92DF92EF92FF920F931F93CF93DF9393
:100160006C017B018B01040F151FEB015E01AE18C2
:10017000BF08C017D10759F06991D601ED91FC91E4
:100180000190F081E02DC6010995892B79F7C50111
:10019000DF91CF911F910F91FF90EF90DF90CF9063
:1001A000BF90AF90089590E0FC01E859FF4F249173
:1001B000FC01EC55FF4F3491FC01E057FF4FE491F7
:1001C000EE23C9F0222339F0233001F1A8F42130C5
:1001D00019F1223029F1F0E0EE0FFF1FE458FF4F34
:1001E000A591B4918FB7F894EC91611126C0309528
:1001F0003E233C938FBF08952730A9F02830C9F0E3
:10020000243049F7809180008F7D03C08091800069
:100210008F7780938000DFCF84B58F7784BDDBCF6D
:1002200084B58F7DFBCF8091B0008F778093B00035
:10023000D2CF8091B0008F7DF9CF3E2BDACF3FB780
:10024000F8948091670290916802A0916902B09140
:100250006A0226B5A89B05C02F3F19F00196A11D83
:10026000B11D3FBFBA2FA92F982F8827BC01CD0100
:10027000620F711D811D911D42E0660F771F881F5F
:10028000991F4A95D1F708958F929F92AF92BF928E
:10029000CF92DF92EF92FF924B015C010E941F010F
:1002A0006B017C010E941F016C197D098E099F0959
:1002B000683E734081059105A8F321E0821A9108F8
:1002C000A108B10888EEC80E83E0D81EE11CF11C1D
:1002D00081149104A104B10429F7FF90EF90DF90FD
:1002E000CF90BF90AF909F908F900895089590E029
:1002F00080E00895EF92FF920F931F93CF93DF93C7
:10030000EC017B018A0188819981009729F02A817B
:100310003B812417350788F4B8016F5F7F4F0E9437
:100320002A06009791F0998388831B830A832C8186
:100330003D81232B11F4FC0110821D830C83B70136
:10034000888199810E94F0060CC08881998100976C
:1003500011F00E94A105198218821D821C821B8245
:100360001A82CE01DF91CF911F910F91FF90EF90F4
:100370000895CF93DF93EC0160E08E810E94D3005B
:1003800061E08E810E94D30060E08E810E94D300E4
:100390008BE891E00197F1F7DF91CF910895CF922B
:1003A000DF92EF92FF920F931F93CF93DF936C0135
:1003B0007C0187E0E80EF11CD0E0C0E0062F10E0E1
:1003C000B8010C2E02C0759567950A94E2F761702A
:1003D000F70181917F010E94D3002196C430D1059D
:1003E00079F7C601DF91CF911F910F91FF90EF90A8
:1003F000DF90CF900C94B901CF92DF92EF92FF92F1
:100400000F931F93CF93DF93EC01F62E642F8C8113
:100410000E94D3008D818F3F19F060E00E94D300CD
:100420000F2D10E08F8584FF25C06E0187E0C80E78
:10043000D11CF12CE12CB8010E2C02C075956795EA
:100440000A94E2F76170F60181916F010E94D30076
:10045000FFEFEF1AFF0A88E0E816F10461F7CE011A
:10046000DF91CF911F910F91FF90EF90DF90CF9090
:100470000C94B901B80184E0759567958A95E1F708
:10048000CE010E94CF016F2DCE01DF91CF911F9140
:100490000F91FF90EF90DF90CF900C94CF0140E050
:1004A000682F8BE692E00C94FC0181E00E944F02E1
:1004B0008BE39FE10197F1F70895CF93DF938230AB
:1004C00029F490917A02986090937A0280937E0248
:1004D00010927F0280E48093800280E18093810209
:1004E00080E58093820280916F020E948700809154
:1004F00070028F3F11F00E948700809171020E946C
:100500008700CBE6D2E09E012B56324080917A02E2
:1005100084FD0AC084E090E02196281739073CF456
:100520008E810E948700EFCF88E090E0F5CF8BE3CB
:100530009DE00197F1F760E080916F020E94D30087
:1005400060E0809171020E94D300809170028F3F21
:1005500019F060E00E94D30080917A0284FD34C0DB
:1005600063E08BE692E00E94CF01CBE4D6E4CE01BB
:100570000197F1F763E08BE692E00E94CF012197AB
:10058000F1F763E08BE692E00E94CF0183E592E011
:100590000197F1F762E08BE692E00E94CF01809133
:1005A0007A0280620E944F0284E080937B028CE09A
:1005B0000E944F020E94550282E080937C0286E0F6
:1005C000DF91CF910C944F0280620E944F028BE426
:1005D00096E40197F1F780917A0280620E944F02BF
:1005E00083E592E00197F1F780917A0280620E94A0
:1005F0004F02D5CF90917E02691710F06FEF690F0F
:10060000E62FF0E0E559FD4F9489890F80680C943E
:100610004F0241E00E94FC0181E090E008951F92AA
:100620000F920FB60F9211242F933F938F939F93A6
:10063000AF93BF938091630290916402A091650291
:10064000B09166023091620223E0230F2D3758F5F6
:100650000196A11DB11D20936202809363029093C5
:100660006402A0936502B093660280916702909144
:100670006802A0916902B0916A020196A11DB11DA4
:100680008093670290936802A0936902B0936A0214
:10069000BF91AF919F918F913F912F910F900FBE7E
:1006A0000F901F90189526E8230F0296A11DB11DEB
:1006B000D2CFCF93DF93CDB7DEB72C970FB6F89498
:1006C000DEBF0FBECDBF789484B5826084BD84B593
:1006D000816084BD85B5826085BD85B5816085BD3D
:1006E00080916E00816080936E00109281008091F5
:1006F000810082608093810080918100816080937D
:100700008100809180008160809380008091B100A1
:1007100084608093B1008091B00081608093B000CC
:1007200080917A00846080937A0080917A00826060
:1007300080937A0080917A00816080937A00809122
:100740007A00806880937A001092C10082E00E9453
:100750005D0280E0682E80E0782E60E080E00E94FC
:10076000FA024EE050E062E171E08BE692E00E9416
:10077000A60068EE73E080E090E00E9444010E94D1
:10078000550260E080E00E94FA0246E050E061E23B
:1007900071E08BE692E00E94A60061E080E00E949A
:1007A000FA0249E050E068E271E08BE692E00E94D4
:1007B000A60060ED77E080E090E00E94440168EEE2
:1007C00073E080E090E00E9444010E945502188688
:1007D0001F821A8619861C861B864FE251E062E34F
:1007E00071E0CE0107960E947A01D12CC12C10E055
:1007F00000E08B859C850817190708F096C00F301C
:1008000011050CF560E0802F0E94FA028B859C8513
:1008100008171907B0F48F819885009791F0800F21
:10082000911FFC01608141E08BE692E00E94FC0197
:100830006AEF70E080E090E00E9444010F5F1F4F7C
:10084000D8CF60E0F0CF00E110E08B859C850817E1
:100850001907A0F7FFEFCF1ADF0A60E080E00E94DF
:10086000FA024601560180E1A80EB11CAC14BD0489
:1008700010F4450156011A8219821C821B821E82C5
:100880001D8250E040E061E672E0CE0101960E94D8
:100890007A01EB84FC848E149F0418F5AE14BF0417
:1008A00008F47501EF81F885EE0DFF1DB080108210
:1008B0006F817885680D791D6115710549F1FB011E
:1008C00001900020E9F73197AF01461B570BCE018D
:1008D00001960E947A018F819885E80EF91EF70132
:1008E000B0824D815E8169817A818BE692E00E94BF
:1008F000A60089819A81009711F00E94A1056AEFF4
:1009000070E080E090E00E9444010F5F1F4F9DCF98
:1009100089819A81009711F00E94A1051A8219829B
:100920001E821D821C821B82D6CF8F8198850097E4
:1009300011F00E94A10568EE73E080E090E00E9453
:1009400044010E9455026114710409F406CF0E940B
:10095000000003CFEBE6F2E0138212828AE091E01E
:10096000918380838CE084838FEF85838BE0868303
:1009700085E0878384E0808783E0818782E08287C7
:100980001386148615861686178681E00C945D0200
:100990002F923F924F925F926F927F928F929F928F
:1009A000AF92BF92CF92DF92EF92FF920F931F937D
:1009B000CF93DF93CDB7DEB7CA1BDB0B0FB6F8942E
:1009C000DEBF0FBECDBF09942A88398848885F846E
:1009D0006E847D848C849B84AA84B984C884DF80DF
:1009E000EE80FD800C811B81AA81B981CE0FD11DC3
:1009F0000FB6F894DEBF0FBECDBFED010895EE0F28
:100A0000FF1F0590F491E02D09940F931F93CF934E
:100A1000DF938230910510F482E090E0E09185024E
:100A2000F091860230E020E0B0E0A0E0309799F449
:100A30002115310509F44AC0281B390B2430310532
:100A4000D8F58A819B816115710589F1FB0193833A
:100A50008283FE0111C040815181028113814817B8
:100A60005907E0F04817590799F4109761F012966A
:100A70000C93129713961C933296CF01DF91CF916E
:100A80001F910F9108950093850210938602F4CF71
:100A90002115310551F04217530738F0A901DB0148
:100AA0009A01BD01DF01F801C1CFEF01F9CF9093A9
:100AB000860280938502CDCFFE01E20FF31F819362
:100AC00091932250310939832883D7CF2091830213
:100AD00030918402232B41F42091020130910301D3
:100AE0003093840220938302209100013091010110
:100AF0002115310541F42DB73EB7409104015091C5
:100B00000501241B350BE0918302F0918402E2176A
:100B1000F307A0F42E1B3F0B2817390778F0AC0120
:100B20004E5F5F4F2417350748F04E0F5F1F5093FD
:100B3000840240938302819391939FCFF0E0E0E0A1
:100B40009CCFCF93DF930097E9F0FC01329713829B
:100B50001282A0918502B0918602ED0130E020E082
:100B60001097A1F420813181820F931F209183027D
:100B7000309184022817390709F061C0F09384028C
:100B8000E0938302DF91CF910895EA01CE17DF074A
:100B9000E8F54A815B819E0141155105B1F7E901F4
:100BA000FB83EA8349915991C40FD51FEC17FD07C8
:100BB00061F4808191810296840F951FE9019983E8
:100BC0008883828193819B838A83F0E0E0E01296A0
:100BD0008D919C9113970097B9F52D913C911197A8
:100BE000CD010296820F931F2091830230918402DF
:100BF0002817390739F6309751F51092860210926E
:100C00008502B0938402A0938302BCCFD383C283B6
:100C100040815181840F951FC817D90761F44E5F39
:100C20005F4F88819981480F591F518340838A8182
:100C30009B81938382832115310509F0B0CFF09316
:100C40008602E09385029ECFFD01DC01C0CF1382B6
:100C50001282D7CFB0E0A0E0E0E3F6E00C94CA0443
:100C60008C01009751F4CB010E9405058C01C8014D
:100C7000CDB7DEB7E0E10C94E604FC01E60FF71F08
:100C80009C0122503109E217F30708F49DC0D901F5
:100C9000CD91DC911197C617D70798F0C530D105D3
:100CA00030F3CE0104978617970708F3C61BD70BBE
:100CB0002297C193D1936D937C93CF010E94A1059C
:100CC000D6CF5B01AC1ABD0A4C018C0E9D1EA091C3
:100CD0008502B0918602512C412CF12CE12C109709
:100CE00031F580918302909184028815990509F06D
:100CF0005CC04616570608F058C0809100019091DC
:100D00000101009741F48DB79EB7409104015091C5
:100D10000501841B950BE817F90708F055C0F093FF
:100D20008402E0938302F90171836083A0CF8D91E7
:100D30009C91119712966C90129713967C90139732
:100D4000A815B90559F56C0142E0C40ED11CCA14AE
:100D5000DB0420F1AC014A195B09DA011296159700
:100D600080F06282738251834083D9016D937C93BA
:100D7000E114F10471F0D7011396FC93EE931297EE
:100D800076CF22968C0F9D1FF90191838083F3010A
:100D9000EFCFF0938602E093850269CF481659069B
:100DA00008F42C017D01D3019ACFCB010E940505E7
:100DB0007C01009749F0AE01B8010E94E706C80126
:100DC0000E94A105870153CF10E000E050CFFB0146
:100DD000DC0102C001900D9241505040D8F70895B7
:100DE000FB01DC0101900D920020E1F70895F894D9
:020DF000FFCF33
:100DF200000087028000000000000903A6007701BE
:100E0200760148656C6C6F20467269656E64732169
:100E120000546F6461797300486561646C696E6542
:100E22007300555320616E6E6F756E636573206E2D
:100E3200657720383030206D6E20446F6C6C6F7295
:100E4200207061636B61676520666F7220556B72FB
:100E520061696E6520202020202020202020204152
:100E62006972706F72747320746F2061747472612E
:100E720063742052732031207472696C6C696F6ED6
:100E820020696E20342079656172732C5363696E18
:100E92006469612020202020202020202020202082
:100EA2002042656E67616C20434E4720696E667210
:100EB200612D4741494C2C204850434C20746F20EF
:100EC20070756D7020696E2052732031372C30306E
:100ED200302063722020202020202020202020206B
:100EE200202044656C68692D4F6D6963726F6E20B6
:100EF2007375622D76617269616E7420636F756CB1
:100F02006420626520626568696E64207375726729
:100F12006520202020202020202020202020205555
:100F220074746172616B68616E642D204E65772006
:100F3200737472696E67656E74206C616E6420648E
:100F420065616C2072756C6573206C696B656C7978
:020F520020007D
:00000001FF
